{
  "contractName": "IOLToken",
  "abi": [
    {
      "inputs": [
        {
          "internalType": "uint256",
          "name": "initialSupply",
          "type": "uint256"
        },
        {
          "internalType": "string",
          "name": "_name",
          "type": "string"
        },
        {
          "internalType": "string",
          "name": "_symbol",
          "type": "string"
        }
      ],
      "stateMutability": "nonpayable",
      "type": "constructor"
    },
    {
      "anonymous": false,
      "inputs": [
        {
          "indexed": true,
          "internalType": "address",
          "name": "owner",
          "type": "address"
        },
        {
          "indexed": true,
          "internalType": "address",
          "name": "spender",
          "type": "address"
        },
        {
          "indexed": false,
          "internalType": "uint256",
          "name": "value",
          "type": "uint256"
        }
      ],
      "name": "Approval",
      "type": "event"
    },
    {
      "anonymous": false,
      "inputs": [
        {
          "indexed": false,
          "internalType": "address",
          "name": "account",
          "type": "address"
        }
      ],
      "name": "Paused",
      "type": "event"
    },
    {
      "anonymous": false,
      "inputs": [
        {
          "indexed": true,
          "internalType": "address",
          "name": "from",
          "type": "address"
        },
        {
          "indexed": true,
          "internalType": "address",
          "name": "to",
          "type": "address"
        },
        {
          "indexed": false,
          "internalType": "uint256",
          "name": "value",
          "type": "uint256"
        }
      ],
      "name": "Transfer",
      "type": "event"
    },
    {
      "anonymous": false,
      "inputs": [
        {
          "indexed": false,
          "internalType": "address",
          "name": "account",
          "type": "address"
        }
      ],
      "name": "Unpaused",
      "type": "event"
    },
    {
      "inputs": [
        {
          "internalType": "address",
          "name": "owner",
          "type": "address"
        },
        {
          "internalType": "address",
          "name": "spender",
          "type": "address"
        }
      ],
      "name": "allowance",
      "outputs": [
        {
          "internalType": "uint256",
          "name": "",
          "type": "uint256"
        }
      ],
      "stateMutability": "view",
      "type": "function",
      "constant": true
    },
    {
      "inputs": [
        {
          "internalType": "address",
          "name": "spender",
          "type": "address"
        },
        {
          "internalType": "uint256",
          "name": "amount",
          "type": "uint256"
        }
      ],
      "name": "approve",
      "outputs": [
        {
          "internalType": "bool",
          "name": "",
          "type": "bool"
        }
      ],
      "stateMutability": "nonpayable",
      "type": "function"
    },
    {
      "inputs": [
        {
          "internalType": "address",
          "name": "account",
          "type": "address"
        }
      ],
      "name": "balanceOf",
      "outputs": [
        {
          "internalType": "uint256",
          "name": "",
          "type": "uint256"
        }
      ],
      "stateMutability": "view",
      "type": "function",
      "constant": true
    },
    {
      "inputs": [],
      "name": "decimals",
      "outputs": [
        {
          "internalType": "uint8",
          "name": "",
          "type": "uint8"
        }
      ],
      "stateMutability": "view",
      "type": "function",
      "constant": true
    },
    {
      "inputs": [
        {
          "internalType": "address",
          "name": "spender",
          "type": "address"
        },
        {
          "internalType": "uint256",
          "name": "subtractedValue",
          "type": "uint256"
        }
      ],
      "name": "decreaseAllowance",
      "outputs": [
        {
          "internalType": "bool",
          "name": "",
          "type": "bool"
        }
      ],
      "stateMutability": "nonpayable",
      "type": "function"
    },
    {
      "inputs": [
        {
          "internalType": "address",
          "name": "spender",
          "type": "address"
        },
        {
          "internalType": "uint256",
          "name": "addedValue",
          "type": "uint256"
        }
      ],
      "name": "increaseAllowance",
      "outputs": [
        {
          "internalType": "bool",
          "name": "",
          "type": "bool"
        }
      ],
      "stateMutability": "nonpayable",
      "type": "function"
    },
    {
      "inputs": [],
      "name": "name",
      "outputs": [
        {
          "internalType": "string",
          "name": "",
          "type": "string"
        }
      ],
      "stateMutability": "view",
      "type": "function",
      "constant": true
    },
    {
      "inputs": [],
      "name": "paused",
      "outputs": [
        {
          "internalType": "bool",
          "name": "",
          "type": "bool"
        }
      ],
      "stateMutability": "view",
      "type": "function",
      "constant": true
    },
    {
      "inputs": [],
      "name": "symbol",
      "outputs": [
        {
          "internalType": "string",
          "name": "",
          "type": "string"
        }
      ],
      "stateMutability": "view",
      "type": "function",
      "constant": true
    },
    {
      "inputs": [],
      "name": "totalSupply",
      "outputs": [
        {
          "internalType": "uint256",
          "name": "",
          "type": "uint256"
        }
      ],
      "stateMutability": "view",
      "type": "function",
      "constant": true
    },
    {
      "inputs": [
        {
          "internalType": "address",
          "name": "recipient",
          "type": "address"
        },
        {
          "internalType": "uint256",
          "name": "amount",
          "type": "uint256"
        }
      ],
      "name": "transfer",
      "outputs": [
        {
          "internalType": "bool",
          "name": "",
          "type": "bool"
        }
      ],
      "stateMutability": "nonpayable",
      "type": "function"
    },
    {
      "inputs": [
        {
          "internalType": "address",
          "name": "sender",
          "type": "address"
        },
        {
          "internalType": "address",
          "name": "recipient",
          "type": "address"
        },
        {
          "internalType": "uint256",
          "name": "amount",
          "type": "uint256"
        }
      ],
      "name": "transferFrom",
      "outputs": [
        {
          "internalType": "bool",
          "name": "",
          "type": "bool"
        }
      ],
      "stateMutability": "nonpayable",
      "type": "function"
    },
    {
      "inputs": [
        {
          "internalType": "bytes",
          "name": "tokenName",
          "type": "bytes"
        }
      ],
      "name": "forceFail",
      "outputs": [
        {
          "internalType": "bool",
          "name": "",
          "type": "bool"
        }
      ],
      "stateMutability": "nonpayable",
      "type": "function"
    }
  ],
  "bytecode": "0x60806040523480156200001157600080fd5b5060405162001d2e38038062001d2e83398181016040528101906200003791906200045c565b818181600390805190602001906200005192919062000323565b5080600490805190602001906200006a92919062000323565b506012600560006101000a81548160ff021916908360ff16021790555050506000600560016101000a81548160ff02191690831515021790555033600560026101000a81548173ffffffffffffffffffffffffffffffffffffffff021916908373ffffffffffffffffffffffffffffffffffffffff160217905550620000f733846200010060201b60201c565b5050506200084d565b600073ffffffffffffffffffffffffffffffffffffffff168273ffffffffffffffffffffffffffffffffffffffff16141562000173576040517f08c379a00000000000000000000000000000000000000000000000000000000081526004016200016a9062000543565b60405180910390fd5b62000187600083836200029760201b60201c565b8060025462000197919062000614565b600281905550806000808473ffffffffffffffffffffffffffffffffffffffff1673ffffffffffffffffffffffffffffffffffffffff16815260200190815260200160002054620001e9919062000614565b6000808473ffffffffffffffffffffffffffffffffffffffff1673ffffffffffffffffffffffffffffffffffffffff168152602001908152602001600020819055508173ffffffffffffffffffffffffffffffffffffffff16600073ffffffffffffffffffffffffffffffffffffffff167fddf252ad1be2c89b69c2b068fc378daa952ba7f163c4a11628f55a4df523b3ef836040516200028b919062000587565b60405180910390a35050565b620002af8383836200030760201b620007c61760201c565b620002bf6200030c60201b60201c565b1562000302576040517f08c379a0000000000000000000000000000000000000000000000000000000008152600401620002f99062000565565b60405180910390fd5b505050565b505050565b6000600560019054906101000a900460ff16905090565b8280546200033190620006b1565b90600052602060002090601f016020900481019282620003555760008555620003a1565b82601f106200037057805160ff1916838001178555620003a1565b82800160010185558215620003a1579182015b82811115620003a057825182559160200191906001019062000383565b5b509050620003b09190620003b4565b5090565b5b80821115620003cf576000816000905550600101620003b5565b5090565b6000620003ea620003e484620005cd565b620005a4565b9050828152602081018484840111156200040357600080fd5b620004108482856200067b565b509392505050565b600082601f8301126200042a57600080fd5b81516200043c848260208601620003d3565b91505092915050565b600081519050620004568162000833565b92915050565b6000806000606084860312156200047257600080fd5b6000620004828682870162000445565b935050602084015167ffffffffffffffff811115620004a057600080fd5b620004ae8682870162000418565b925050604084015167ffffffffffffffff811115620004cc57600080fd5b620004da8682870162000418565b9150509250925092565b6000620004f3601f8362000603565b91506200050082620007bb565b602082019050919050565b60006200051a602a8362000603565b91506200052782620007e4565b604082019050919050565b6200053d8162000671565b82525050565b600060208201905081810360008301526200055e81620004e4565b9050919050565b6000602082019050818103600083015262000580816200050b565b9050919050565b60006020820190506200059e600083018462000532565b92915050565b6000620005b0620005c3565b9050620005be8282620006e7565b919050565b6000604051905090565b600067ffffffffffffffff821115620005eb57620005ea6200077b565b5b620005f682620007aa565b9050602081019050919050565b600082825260208201905092915050565b6000620006218262000671565b91506200062e8362000671565b9250827fffffffffffffffffffffffffffffffffffffffffffffffffffffffffffffffff038211156200066657620006656200071d565b5b828201905092915050565b6000819050919050565b60005b838110156200069b5780820151818401526020810190506200067e565b83811115620006ab576000848401525b50505050565b60006002820490506001821680620006ca57607f821691505b60208210811415620006e157620006e06200074c565b5b50919050565b620006f282620007aa565b810181811067ffffffffffffffff821117156200071457620007136200077b565b5b80604052505050565b7f4e487b7100000000000000000000000000000000000000000000000000000000600052601160045260246000fd5b7f4e487b7100000000000000000000000000000000000000000000000000000000600052602260045260246000fd5b7f4e487b7100000000000000000000000000000000000000000000000000000000600052604160045260246000fd5b6000601f19601f8301169050919050565b7f45524332303a206d696e7420746f20746865207a65726f206164647265737300600082015250565b7f45524332305061757361626c653a20746f6b656e207472616e7366657220776860008201527f696c652070617573656400000000000000000000000000000000000000000000602082015250565b6200083e8162000671565b81146200084a57600080fd5b50565b6114d1806200085d6000396000f3fe608060405234801561001057600080fd5b50600436106100cf5760003560e01c80635c975abb1161008c578063a457c2d711610066578063a457c2d71461022a578063a9059cbb1461025a578063dd62ed3e1461028a578063f8be96b4146102ba576100cf565b80635c975abb146101be57806370a08231146101dc57806395d89b411461020c576100cf565b806306fdde03146100d4578063095ea7b3146100f257806318160ddd1461012257806323b872dd14610140578063313ce56714610170578063395093511461018e575b600080fd5b6100dc6102ea565b6040516100e99190610f56565b60405180910390f35b61010c60048036038101906101079190610da9565b61037c565b6040516101199190610f3b565b60405180910390f35b61012a61039a565b6040516101379190611018565b60405180910390f35b61015a60048036038101906101559190610d5a565b6103a4565b6040516101679190610f3b565b60405180910390f35b61017861045c565b6040516101859190611033565b60405180910390f35b6101a860048036038101906101a39190610da9565b610473565b6040516101b59190610f3b565b60405180910390f35b6101c661051f565b6040516101d39190610f3b565b60405180910390f35b6101f660048036038101906101f19190610cf5565b610536565b6040516102039190611018565b60405180910390f35b61021461057e565b6040516102219190610f56565b60405180910390f35b610244600480360381019061023f9190610da9565b610610565b6040516102519190610f3b565b60405180910390f35b610274600480360381019061026f9190610da9565b6106bc565b6040516102819190610f3b565b60405180910390f35b6102a4600480360381019061029f9190610d1e565b6106da565b6040516102b19190611018565b60405180910390f35b6102d460048036038101906102cf9190610de5565b610761565b6040516102e19190610f3b565b60405180910390f35b6060600380546102f9906111e1565b80601f0160208091040260200160405190810160405280929190818152602001828054610325906111e1565b80156103725780601f1061034757610100808354040283529160200191610372565b820191906000526020600020905b81548152906001019060200180831161035557829003601f168201915b5050505050905090565b60006103906103896107cb565b84846107d3565b6001905092915050565b6000600254905090565b60006103b184848461099e565b610451846103bd6107cb565b84600160008973ffffffffffffffffffffffffffffffffffffffff1673ffffffffffffffffffffffffffffffffffffffff16815260200190815260200160002060006104076107cb565b73ffffffffffffffffffffffffffffffffffffffff1673ffffffffffffffffffffffffffffffffffffffff1681526020019081526020016000205461044c9190611116565b6107d3565b600190509392505050565b6000600560009054906101000a900460ff16905090565b60006105156104806107cb565b84846001600061048e6107cb565b73ffffffffffffffffffffffffffffffffffffffff1673ffffffffffffffffffffffffffffffffffffffff16815260200190815260200160002060008873ffffffffffffffffffffffffffffffffffffffff1673ffffffffffffffffffffffffffffffffffffffff1681526020019081526020016000205461051091906110c0565b6107d3565b6001905092915050565b6000600560019054906101000a900460ff16905090565b60008060008373ffffffffffffffffffffffffffffffffffffffff1673ffffffffffffffffffffffffffffffffffffffff168152602001908152602001600020549050919050565b60606004805461058d906111e1565b80601f01602080910402602001604051908101604052809291908181526020018280546105b9906111e1565b80156106065780601f106105db57610100808354040283529160200191610606565b820191906000526020600020905b8154815290600101906020018083116105e957829003601f168201915b5050505050905090565b60006106b261061d6107cb565b84846001600061062b6107cb565b73ffffffffffffffffffffffffffffffffffffffff1673ffffffffffffffffffffffffffffffffffffffff16815260200190815260200160002060008873ffffffffffffffffffffffffffffffffffffffff1673ffffffffffffffffffffffffffffffffffffffff168152602001908152602001600020546106ad9190611116565b6107d3565b6001905092915050565b60006106d06106c96107cb565b848461099e565b6001905092915050565b6000600160008473ffffffffffffffffffffffffffffffffffffffff1673ffffffffffffffffffffffffffffffffffffffff16815260200190815260200160002060008373ffffffffffffffffffffffffffffffffffffffff1673ffffffffffffffffffffffffffffffffffffffff16815260200190815260200160002054905092915050565b60003373ffffffffffffffffffffffffffffffffffffffff16600560029054906101000a900473ffffffffffffffffffffffffffffffffffffffff1673ffffffffffffffffffffffffffffffffffffffff16146107bd57600080fd5b60019050919050565b505050565b600033905090565b600073ffffffffffffffffffffffffffffffffffffffff168373ffffffffffffffffffffffffffffffffffffffff161415610843576040517f08c379a000000000000000000000000000000000000000000000000000000000815260040161083a90610fd8565b60405180910390fd5b600073ffffffffffffffffffffffffffffffffffffffff168273ffffffffffffffffffffffffffffffffffffffff1614156108b3576040517f08c379a00000000000000000000000000000000000000000000000000000000081526004016108aa90610f98565b60405180910390fd5b80600160008573ffffffffffffffffffffffffffffffffffffffff1673ffffffffffffffffffffffffffffffffffffffff16815260200190815260200160002060008473ffffffffffffffffffffffffffffffffffffffff1673ffffffffffffffffffffffffffffffffffffffff168152602001908152602001600020819055508173ffffffffffffffffffffffffffffffffffffffff168373ffffffffffffffffffffffffffffffffffffffff167f8c5be1e5ebec7d5bd14f71427d1e84f3dd0314c0f7b2291e5b200ac8c7c3b925836040516109919190611018565b60405180910390a3505050565b600073ffffffffffffffffffffffffffffffffffffffff168373ffffffffffffffffffffffffffffffffffffffff161415610a0e576040517f08c379a0000000000000000000000000000000000000000000000000000000008152600401610a0590610fb8565b60405180910390fd5b600073ffffffffffffffffffffffffffffffffffffffff168273ffffffffffffffffffffffffffffffffffffffff161415610a7e576040517f08c379a0000000000000000000000000000000000000000000000000000000008152600401610a7590610f78565b60405180910390fd5b610a89838383610c0b565b806000808573ffffffffffffffffffffffffffffffffffffffff1673ffffffffffffffffffffffffffffffffffffffff16815260200190815260200160002054610ad39190611116565b6000808573ffffffffffffffffffffffffffffffffffffffff1673ffffffffffffffffffffffffffffffffffffffff16815260200190815260200160002081905550806000808473ffffffffffffffffffffffffffffffffffffffff1673ffffffffffffffffffffffffffffffffffffffff16815260200190815260200160002054610b5f91906110c0565b6000808473ffffffffffffffffffffffffffffffffffffffff1673ffffffffffffffffffffffffffffffffffffffff168152602001908152602001600020819055508173ffffffffffffffffffffffffffffffffffffffff168373ffffffffffffffffffffffffffffffffffffffff167fddf252ad1be2c89b69c2b068fc378daa952ba7f163c4a11628f55a4df523b3ef83604051610bfe9190611018565b60405180910390a3505050565b610c168383836107c6565b610c1e61051f565b15610c5e576040517f08c379a0000000000000000000000000000000000000000000000000000000008152600401610c5590610ff8565b60405180910390fd5b505050565b6000610c76610c7184611073565b61104e565b905082815260208101848484011115610c8e57600080fd5b610c9984828561119f565b509392505050565b600081359050610cb08161146d565b92915050565b600082601f830112610cc757600080fd5b8135610cd7848260208601610c63565b91505092915050565b600081359050610cef81611484565b92915050565b600060208284031215610d0757600080fd5b6000610d1584828501610ca1565b91505092915050565b60008060408385031215610d3157600080fd5b6000610d3f85828601610ca1565b9250506020610d5085828601610ca1565b9150509250929050565b600080600060608486031215610d6f57600080fd5b6000610d7d86828701610ca1565b9350506020610d8e86828701610ca1565b9250506040610d9f86828701610ce0565b9150509250925092565b60008060408385031215610dbc57600080fd5b6000610dca85828601610ca1565b9250506020610ddb85828601610ce0565b9150509250929050565b600060208284031215610df757600080fd5b600082013567ffffffffffffffff811115610e1157600080fd5b610e1d84828501610cb6565b91505092915050565b610e2f8161115c565b82525050565b6000610e40826110a4565b610e4a81856110af565b9350610e5a8185602086016111ae565b610e63816112d1565b840191505092915050565b6000610e7b6023836110af565b9150610e86826112e2565b604082019050919050565b6000610e9e6022836110af565b9150610ea982611331565b604082019050919050565b6000610ec16025836110af565b9150610ecc82611380565b604082019050919050565b6000610ee46024836110af565b9150610eef826113cf565b604082019050919050565b6000610f07602a836110af565b9150610f128261141e565b604082019050919050565b610f2681611188565b82525050565b610f3581611192565b82525050565b6000602082019050610f506000830184610e26565b92915050565b60006020820190508181036000830152610f708184610e35565b905092915050565b60006020820190508181036000830152610f9181610e6e565b9050919050565b60006020820190508181036000830152610fb181610e91565b9050919050565b60006020820190508181036000830152610fd181610eb4565b9050919050565b60006020820190508181036000830152610ff181610ed7565b9050919050565b6000602082019050818103600083015261101181610efa565b9050919050565b600060208201905061102d6000830184610f1d565b92915050565b60006020820190506110486000830184610f2c565b92915050565b6000611058611069565b90506110648282611213565b919050565b6000604051905090565b600067ffffffffffffffff82111561108e5761108d6112a2565b5b611097826112d1565b9050602081019050919050565b600081519050919050565b600082825260208201905092915050565b60006110cb82611188565b91506110d683611188565b9250827fffffffffffffffffffffffffffffffffffffffffffffffffffffffffffffffff0382111561110b5761110a611244565b5b828201905092915050565b600061112182611188565b915061112c83611188565b92508282101561113f5761113e611244565b5b828203905092915050565b600061115582611168565b9050919050565b60008115159050919050565b600073ffffffffffffffffffffffffffffffffffffffff82169050919050565b6000819050919050565b600060ff82169050919050565b82818337600083830152505050565b60005b838110156111cc5780820151818401526020810190506111b1565b838111156111db576000848401525b50505050565b600060028204905060018216806111f957607f821691505b6020821081141561120d5761120c611273565b5b50919050565b61121c826112d1565b810181811067ffffffffffffffff8211171561123b5761123a6112a2565b5b80604052505050565b7f4e487b7100000000000000000000000000000000000000000000000000000000600052601160045260246000fd5b7f4e487b7100000000000000000000000000000000000000000000000000000000600052602260045260246000fd5b7f4e487b7100000000000000000000000000000000000000000000000000000000600052604160045260246000fd5b6000601f19601f8301169050919050565b7f45524332303a207472616e7366657220746f20746865207a65726f206164647260008201527f6573730000000000000000000000000000000000000000000000000000000000602082015250565b7f45524332303a20617070726f766520746f20746865207a65726f20616464726560008201527f7373000000000000000000000000000000000000000000000000000000000000602082015250565b7f45524332303a207472616e736665722066726f6d20746865207a65726f20616460008201527f6472657373000000000000000000000000000000000000000000000000000000602082015250565b7f45524332303a20617070726f76652066726f6d20746865207a65726f2061646460008201527f7265737300000000000000000000000000000000000000000000000000000000602082015250565b7f45524332305061757361626c653a20746f6b656e207472616e7366657220776860008201527f696c652070617573656400000000000000000000000000000000000000000000602082015250565b6114768161114a565b811461148157600080fd5b50565b61148d81611188565b811461149857600080fd5b5056fea2646970667358221220acaaa68a1c068048c75b3894fbc6c6b10895456e80d8649fc166807f725c187a64736f6c63430008040033",
  "immutableReferences": {},
  "source": "pragma solidity ^0.8.0;\r\n\r\n//import \"openzeppelin-contracts/token/ERC20/ERC20.sol\";\r\n//import \"openzeppelin-contracts/token/ERC20/TokenTimelock.sol\";\r\nimport \"openzeppelin-contracts/token/ERC20/ERC20Pausable.sol\";\r\n\r\n\r\ncontract IOLToken is ERC20Pausable{\r\n\r\n    address owner;\r\n\r\n    constructor(uint256 initialSupply, string memory _name, string memory _symbol)\r\n        ERC20(_name,_symbol)\r\n        public\r\n    {\r\n        owner=msg.sender;\r\n        _mint(msg.sender, initialSupply);\r\n    }\r\n\r\n\r\n    //start date-end date\r\n    enum TokenPair {ETH, USDC, DAI}\r\n    struct Item{\r\n            uint256                    startDate;\r\n            uint256                    endDate;\r\n            uint256                    target;\r\n            uint256                    aggregatedAmount;\r\n            mapping(address=>uint256)   byersBalance;\r\n            bytes                      token1;\r\n            TokenPair                  token2;\r\n            bool                       failFlag;\r\n    }\r\n\r\n    //address of the creator and token name\r\n    mapping(address=>Item) ledgerOwner;\r\n\r\n    //token name and details about presale\r\n    mapping(bytes=>Item) ledger;\r\n\r\n    //add liquidity on presale\r\n    //withdraw deposits on failed presale\r\n    //create a pair on uniswap on successful presale\r\n    //force fail by admin\r\n    function forceFail(bytes memory tokenName) public returns(bool){\r\n        require(owner==msg.sender);\r\n        //activate the failed flag => withdraw the deposits\r\n        return true;\r\n    }\r\n}",
  "sourcePath": "C:/Users/Asus/go/src/crwodSale/contracts/IOLToken.sol",
  "compiler": {
    "name": "solc",
    "version": "0.8.4+commit.c7e474f2.Emscripten.clang"
  },
  "schemaVersion": "3.4.1",
  "updatedAt": "2021-05-24T13:26:09.229Z",
  "networkType": "ethereum",
  "devdoc": {
    "kind": "dev",
    "methods": {
      "allowance(address,address)": {
        "details": "See {IERC20-allowance}."
      },
      "approve(address,uint256)": {
        "details": "See {IERC20-approve}. Requirements: - `spender` cannot be the zero address."
      },
      "balanceOf(address)": {
        "details": "See {IERC20-balanceOf}."
      },
      "decimals()": {
        "details": "Returns the number of decimals used to get its user representation. For example, if `decimals` equals `2`, a balance of `505` tokens should be displayed to a user as `5,05` (`505 / 10 ** 2`). Tokens usually opt for a value of 18, imitating the relationship between Ether and Wei. This is the value {ERC20} uses, unless {_setupDecimals} is called. NOTE: This information is only used for _display_ purposes: it in no way affects any of the arithmetic of the contract, including {IERC20-balanceOf} and {IERC20-transfer}."
      },
      "decreaseAllowance(address,uint256)": {
        "details": "Atomically decreases the allowance granted to `spender` by the caller. This is an alternative to {approve} that can be used as a mitigation for problems described in {IERC20-approve}. Emits an {Approval} event indicating the updated allowance. Requirements: - `spender` cannot be the zero address. - `spender` must have allowance for the caller of at least `subtractedValue`."
      },
      "increaseAllowance(address,uint256)": {
        "details": "Atomically increases the allowance granted to `spender` by the caller. This is an alternative to {approve} that can be used as a mitigation for problems described in {IERC20-approve}. Emits an {Approval} event indicating the updated allowance. Requirements: - `spender` cannot be the zero address."
      },
      "name()": {
        "details": "Returns the name of the token."
      },
      "paused()": {
        "details": "Returns true if the contract is paused, and false otherwise."
      },
      "symbol()": {
        "details": "Returns the symbol of the token, usually a shorter version of the name."
      },
      "totalSupply()": {
        "details": "See {IERC20-totalSupply}."
      },
      "transfer(address,uint256)": {
        "details": "See {IERC20-transfer}. Requirements: - `recipient` cannot be the zero address. - the caller must have a balance of at least `amount`."
      },
      "transferFrom(address,address,uint256)": {
        "details": "See {IERC20-transferFrom}. Emits an {Approval} event indicating the updated allowance. This is not required by the EIP. See the note at the beginning of {ERC20}. Requirements: - `sender` and `recipient` cannot be the zero address. - `sender` must have a balance of at least `amount`. - the caller must have allowance for ``sender``'s tokens of at least `amount`."
      }
    },
    "version": 1
  },
  "userdoc": {
    "kind": "user",
    "methods": {},
    "version": 1
  }
}